:020000000828CE
:020008004C2882
:1000100083160317003088008901810100308700B2
:100020008C01831603178901880183160313950138
:1000300086010330960081019D018E018130990077
:100040009A012630980000308500FF30860000308D
:10005000870002308C00FA3092009F018312031354
:1000600045309F00C8308B008C019701003085001F
:1000700000308600003087009D01980194019001B6
:100080009D0189010030910006309200FA30A300F2
:10009000A501A6014B284B28A1000308A0000618C3
:1000A0007128861868285428A30BF22826186A2875
:1000B0000708533A0319652853308700FA30A30024
:1000C000FA30920006309200F228003087005E2855
:1000D0002614F2288B01A50AE120FF3A0319B22861
:1000E0005E288B01083085004430061AB72823307B
:1000F000861AB7283030061BB7282A30861BB72847
:10010000043085004330061AB7283930861AB728DC
:100110003830061BB7283730861BB72802308500D9
:100120004230061AB7283630861AB7283530061BF3
:10013000B7283430861BB728013085004130061AB5
:10014000B7283330861AB7283230061BB72831302B
:10015000861BB7280619AD287128FF30A400A50A10
:10016000CB20B2282508A700A501A601F228A400EB
:10017000A50ACB20FF30A800A80BBC28861BBE28F0
:10018000061BBE28861ABE28061ABE2825080A3A6B
:100190000319AD2871282508831203178D008312D7
:1001A00003132408831203178C00831603178C1380
:1001B0000C1555308D00AA308D008C14831203135A
:1001C000E1288B01831203132508831203178D0086
:1001D000831603170C14831203170C0883120313DE
:1001E00087000800831203138C10C8308B0020088E
:0601F00083002108090054
:04400E00F120FF3F5F
:00000001FF
