:020000000828CE
:020008004C2882
:1000100083160317003088008901810100308700B2
:100020008C01831603178901880183160313950138
:1000300086010330960081019D018E018130990077
:100040009A012630980000308500FF30860000308D
:10005000870002308C00FA3092009F018312031354
:1000600045309F00C8308B008C019701003085001F
:1000700000308600003087009D01980194019001B6
:100080009D0189010030910006309200FA30A300F2
:10009000A501A6014B284B28A1000308A0000618C3
:1000A000702886186728A30BF028261869280708E7
:1000B000533A0319642853308700FA30A300FA300A
:1000C000920006309200F028003087005D28261448
:1000D000F0288B01A50AE020FF3A0319B1285D281A
:1000E0008B01083085004430061AB6282330861A62
:1000F000B6283030061BB6282A30861BB6280430B6
:1001000085004330061AB6283930861AB6283830AA
:10011000061BB6283730861BB628023085004230D1
:10012000061AB6283630861AB6283530061BB62889
:100130003430861BB628013085004130061AB628B7
:100140003330861AB6283230061BB6283130861B6B
:10015000B6280619AC287028FF30A400A50ACA20CA
:10016000B1282508A700A501A601F028A400A50A2A
:10017000CA20FF30A800A80BBB28861BBD28061B81
:10018000BD28861ABD28061ABD2825080A3A031973
:10019000AC2870282508831203178D0083120313DF
:1001A0002408831203178C00831603178C130C1575
:1001B00055308D00AA308D008C1483120313E02873
:1001C000831203132508831203178D008316031768
:1001D0000C14831203170C08831203138700080002
:1001E000831203138C10C8308B0020088300210871
:0201F000090004
:04400E00F120FF3F5F
:00000001FF
